:020000040800F2
:10000000301900200501000889100008D70E0008EB
:1000100085100008D1090008DB1D00080000000061
:10002000000000000000000000000000A916000809
:10003000910C00080000000079150008BD170008A9
:100040001F0100081F0100081F0100081F01000810
:100050001F0100081F0100081F0100081F01000800
:100060001F0100081F0100081F0100081F010008F0
:100070001F0100081F0100081F0100081F010008E0
:100080001F0100081F0100081F0100081F010008D0
:100090001F0100081F0100081F010008950C00083F
:1000A0001F0100081F0100081F0100081F010008B0
:1000B0001F0100087D1800081F0100081F0100082B
:1000C0001F0100081F0100081F0100081F01000890
:1000D0001F010008411B00081F010008C91B000880
:1000E0001F0100081F0100081F010008DFF810D0E1
:1000F00000F05AFB0048004731280008AFF30080A9
:10010000301900200648804706480047FEE7FEE712
:10011000FEE7FEE7FEE7FEE7FEE7FEE7FEE7FEE7B7
:10012000C1170008ED00000880EA010210B502F0D6
:100130000043400022D04A001FD0010E01EB1261A3
:10014000C0F35600C2F3560240F4000042F400022D
:10015000A0FB022000047F39140400D0401C50EAA8
:10016000124001D44000491EC2B20C0604EBD0106C
:10017000401C4008802A02D003E0002010BD20F07F
:100180000100002900DA0020184310BD2DE9FE4FC0
:1001900081EA030404F0004421F0004100944FF090
:1001A000000B23F0004350EA01045ED052EA03043E
:1001B0005BD0C3F30A54C1F30A552C44A4F2F334C0
:1001C0000194A0FB0254C1F3130141F48011C3F365
:1001D000130343F4801301FB024400FB034E840A23
:1001E000970A44EA815447EA8357A4FB07680295BB
:1001F0008D0A05FB07854FEA932C04FB0C54270559
:10020000029D4FEA065847EA1637B5EB08056EEB34
:10021000070C870E920E47EA811742EA8312A7FB6A
:100220000201B6EB0B0164EB00042B0D43EA0C3327
:100230005E1844EB1C50DA465146E7FB0201C5F359
:1002400013044FEA0B3343EA14534FEA0432019C80
:1002500043EA0603A4F10C040294009CCDE900B427
:1002600000F025F903B0BDE8F08F00200146F9E762
:10027000C10F80EAE0700844CA079623002100F00D
:10028000D9B896230022114600F0D4B800F00042FD
:1002900020F00040C10DC0F3160040F400007F299B
:1002A00001DA00207047962903DCC1F19601C840AD
:1002B00001E096398840002AF4D04042704700F0AF
:1002C000004230F000400AD0C10D01F56071C0F36A
:1002D000160042EA0151C20840071143704700204E
:1002E0000146704730B5041E71F1000404DB4FF085
:1002F0000044404264EB0101141E73F1000405DB6D
:100300001C464FF00043524263EB0403994208BF7E
:10031000904230BD01F0004330B421F0004150EA7A
:10032000010206D00A0DA2F56072C1F31301002A82
:1003300002DC30BC00207047440F44EAC104C10015
:10034000E01830BC00EBC25000F06BB8002801DBB5
:10035000C0F10040002901DBC1F10041814270473A
:10036000002801DBC0F10040002901DBC1F10041A0
:100370008842704730B50B460146002020220124F8
:1003800009E021FA02F59D4205D303FA02F5491B63
:1003900004FA02F52844151EA2F10102F1DC30BD79
:1003A0002DE9F05F0546002092469B4688460646AA
:1003B000814640241BE0284641464746224600F03D
:1003C00020F853465A46C01A914110D31146184698
:1003D000224600F0FBF92D1A67EB01084F46224632
:1003E0000120002100F0F2F917EB00094E41201E18
:1003F000A4F10104DFDC484631462A464346BDE805
:10040000F09F202A04DB203A21FA02F000217047F5
:1004100021FA02F3D040C2F120029140084319466C
:1004200070470029A8BF7047401C490008BF20F052
:100430000100704710B4B0FA80FC00FA0CF050EAEA
:10044000010404BF10BC704749B1CCF1200421FA6B
:1004500004F411FA0CF118BF012121430843A3EB66
:100460000C01CB1D4FEA00614FEA102042BF002073
:1004700010BC704700EBC35010440029A4BF10BC4F
:100480007047401C490008BF20F0010010BC7047B5
:1004900010B5141E73F1000408DA401C41F100018C
:1004A00092185B411A4301D120F0010010BD2DE9E3
:1004B000F04D92469B4611B1B1FA81F202E0B0FADA
:1004C00080F22032904600F081F904460F4640EA5F
:1004D0000A0041EA0B0153465A46084313D011461D
:1004E00053EA010019D0C8F140025046FFF789FFD6
:1004F00005460E4650465946424600F067F9084305
:1005000005D0012004E020463946BDE8F08D0020EA
:10051000054346EAE0762C4337430A986305E40A2C
:10052000A0EB08000022FD0A44EA47540A3002D535
:1005300000200146E9E7010510196941DDE9084598
:1005400000196941BDE8F04DA2E72DE9FE4F804654
:1005500081EA0300C00F0C46009021F0004123F017
:100560000045B8EB0200A94105D24046214690461D
:100570001C460B46024623F00040104347D0270D8F
:10058000C7F30A00C3F30A510290401A01904028B1
:100590006BDAC3F3130040F4801B0098924620B13D
:1005A0000023D2EB030A63EB0B0B01985946C0F111
:1005B0004002504600F00AF906460D46504659469C
:1005C000019A00F012F910EB08006141002487EA5B
:1005D000115284EAE7731A4340D0009A62B3019A39
:1005E000012A4FEA075215DC001B61EB02014FF0B4
:1005F000004202EA0752CDE90042001C41F5801199
:1006000032462B46FFF753FF03B0BDE8F08F40465C
:100610002146F9E7001B61EB0201001C41F5801344
:1006200000185B412018A2F5001747EB030140EAD0
:10063000D570B6196D4111E06D084FEA360645EAEE
:10064000C0754FEA0752001B61EB0201001C41F527
:10065000801149084FEA30000019514132462B46BB
:1006600003B0BDE8F04FFFF713BF00980122400030
:100670000023D0EB020263EBE073009821464FEABF
:10068000E074B8EB000061EB0401E9E783F000439C
:100690005BE781F0004158E72DE9F04D81EA030462
:1006A00004F0004B21F0004514464FF0000A23F0FF
:1006B000004150EA050220D054EA01021DD0C5F3E2
:1006C0000A570246C5F31303C1F31300C1F30A56D8
:1006D00040F4801543F48013A7EB0608101BD646A0
:1006E00008F2FD3873EB050002D308F1010801E0C0
:1006F00092185B41B8F1000F03DA00200146BDE813
:10070000F08D00204FF48011064684460EE0171B42
:1007100073EB050705D3121B63EB050306434CEA95
:10072000010C49084FEA300092185B4150EA01077A
:10073000EDD152EA030012D082EA040083EA0501F7
:10074000084305D0101BAB4106D20122002306E06E
:1007500000224FF0004302E06FF0010253101AEB49
:1007600006004CEB085110EB0A0041EB0B01BDE811
:10077000F04DFFF78DBEC1F30A52C1F3130140F2F1
:10078000FF3341F480119A4202DA0020014670479B
:1007900040F233439A42A2F2334202DC5242FFF764
:1007A00030BE00F013B80000064C074D06E0E068CC
:1007B00040F0010394E8070098471034AC42F6D3A8
:1007C000FFF798FCB8440008D8440008202A04DB4E
:1007D000203A00FA02F1002070479140C2F1200354
:1007E00020FA03F3194390407047202A06DBCB1709
:1007F000203A41FA02F043EAE07306E041FA02F3DC
:10080000D040C2F12002914008431946704721B1FF
:10081000826842F00102826003E0826822F00102F5
:1008200082607047014600208A6802F004020AB123
:10083000012000E0002070470146C86C80B270477C
:100840000246002013680B400BB1012000E000209D
:100850007047014600208A6802F008020AB10120B0
:1008600000E000207047000030B502460020002361
:1008700050680F4C20400D790C6844EA0524204351
:10088000506090680B4C2040D1E902542C434D79C4
:1008900044EA450420439060D06A20F470000C7C48
:1008A000641EE4B2234340EA0350D06230BD00002E
:1008B000FFFEF0FFFDF7F1FFF0B504460D46002006
:1008C0000021092D11DDE068A5F10A0606EB4607B7
:1008D000072606FA07F18843A5F10A0606EB460645
:1008E00003FA06F10843E0600CE0206905EB4507D8
:1008F000072606FA07F1884305EB450603FA06F1D9
:1009000008432061072A0FDA606B561E06EB860744
:100910001F2606FA07F18843561E06EB860605FADF
:1009200006F10843606322E00D2A0FDA206BD61F20
:1009300006EB86071F2606FA07F18843D61F06EB4B
:10094000860605FA06F10843206310E0E06AA2F18A
:100950000D0606EB86071F2606FA07F18843A2F16B
:100960000D0606EB860605FA06F10843E062F0BDC7
:10097000816841F008018160704721B1826842F4CA
:10098000A002826003E0826822F4A00282607047C5
:10099000816841F0040181607047000008B50121C1
:1009A000082000F007FE10208DF80300C002ADF80B
:1009B000000003208DF802006946034800F0FEF9AC
:1009C00000200249086008BD000C0140BC812142A2
:1009D00000BFFEE710B500241548006820F4704001
:1009E000134908601348406840F4004011494860CA
:1009F00008E0C82C01DD012010BD601CC4B201203C
:100A000001F09CFE0C4800680028F2D1002408E0A8
:100A1000F02C01DB0120EFE7601CC4B2012001F0E3
:100A20008DFE054800680028F2D00020E4E70000B1
:100A30000408014000200140180121422DE9F84F2F
:100A40004FF0000B0024A246A14600F0D7F800F0BA
:100A5000B1F8FFF7BFFFCC2000F0DCF8BE2000F0BB
:100A6000D9F800F095F8824600F092F88146B9F185
:100A7000070F08DD6FEA090000F0FF096FEA0A00BE
:100A800000F0FF0A01E04FF0010B4C46200204B2D7
:100A900004EB0A0004B2BBF1000F0FD02046FFF7B1
:100AA000E7FB0090FFF70BFC074600220C4BFFF71B
:100AB0006DFB0546FFF72EFCBDE8F88F601CFFF7C5
:100AC000D7FB0090FFF7FBFB07460022044BFFF724
:100AD0005DFB81F000410546FFF71CFCECE70000E0
:100AE0000000B03F08B50121042000F063FD402064
:100AF000ADF8000010208DF8030003208DF80200EF
:100B00006946064800F05AF94021044800F0E1F92E
:100B100000F050F8FFF75EFF08BD0000000801403C
:100B200010B500241648006820F47040144908608D
:100B30001448406840F4405012494860002012496F
:100B40000860022001F0FAFD01201049C1F8980167
:100B50000B48006820F47040094908600948406863
:100B600040F40040074948600C2001F0E7FD0648CA
:100B700080380068C4B2322001F0E0FD204610BD8C
:100B80000408014000200140980121420000214258
:100B900070B50026002408E0FFF7C2FF054605FAFD
:100BA00004F03043C6B2601CC4B2082CF4DB3046FB
:100BB00070BD000010B50D48006820F470400B496E
:100BC00008600B48406840F44050094948600020E4
:100BD0000849086040F2EE2001F0B0FD012006490E
:100BE000C1F898010F2001F0A9FD10BD04080140D3
:100BF00000200140980121420000214210B5FFF77A
:100C0000D9FFFFF7E7FECC2000F004F8442000F005
:100C100001F810BD70B5054600261948006820F49B
:100C20007040174908601748406840F44050154923
:100C30004860002421E045FA04F000F001066EB19E
:100C4000002011490860022001F078FD01200F49C1
:100C5000C1F898013C2001F071FD0CE000200A4928
:100C600008603C2001F06AFD01200849C1F89801A4
:100C7000022001F063FD601CC4B2082CDBDB70BDF8
:100C80000408014000200140980121420000214257
:100C90007047000010B5202000F07CF8012819D121
:100CA0000A2001F025FD202000F074F8012811D160
:100CB000202000F069F82848006858B9002027492A
:100CC00008702749086027490870274908602749A4
:100CD000C1F8B401402000F05DF801281AD10A20C3
:100CE00001F006FD402000F055F8012812D1402007
:100CF00000F04AF81848001F006858B900201C4945
:100D000008701C4908601C49087017490860174999
:100D1000C1F8B801802000F03DF801281AD10A205E
:100D200001F0E6FC802000F035F8012812D1802087
:100D300000F02AF81148006860B9002010490870D6
:100D4000104908600849083908600849C1F8B80125
:100D50000549086010BD0000100123428C000020EE
:100D6000900000209C000020BC8121420080214294
:100D70008D000020940000209D00002000012142F1
:100D80008E00002098000020014908607047000094
:100D900014040140014600200022074B1B6803EAAF
:100DA0000102054B14331B680B4013B10AB101203B
:100DB00000E0002070470000000401402DE9F041F0
:100DC000024600250026002000230024002791F879
:100DD00003C00CF00F0591F803C00CF0100CBCF12F
:100DE000000F03D091F802C04CEA050591F800C04D
:100DF000BCF1000F31D0146800202BE04FF0010C43
:100E00000CFA00F3B1F800C00CEA03069E4220D1B0
:100E100083004FF00F0C0CFA03F7BC4305FA03FCF8
:100E20004CEA040491F803C0BCF1280F06D14FF03E
:100E3000010C0CFA00FCC2F814C00AE091F803C0DF
:100E4000BCF1480F05D14FF0010C0CFA00FCC2F8C0
:100E500010C0401C0828D1D31460B1F800C0BCF108
:100E6000FF0F34DD546800202EE000F1080C4FF035
:100E7000010808FA0CF3B1F800C00CEA03069E4220
:100E800021D183004FF00F0C0CFA03F7BC4305FA95
:100E900003FC4CEA040491F803C0BCF1280F05D10F
:100EA00000F1080C08FA0CF8C2F8148091F803C09D
:100EB000BCF1480F07D100F1080C4FF0010808FA07
:100EC0000CF8C2F81080401C0828CED35460BDE84E
:100ED000F0810161704700BFFEE7000010B54FF4DC
:100EE000A06000F00BF901F0E1FB4FF4E13001F0FC
:100EF000B3FE00F0A7F8FFF751FD01F057FEFFF732
:100F0000F1FD01F07FFC00F04FF90C2310A200214D
:100F1000084600F0D3FA0C2311A21946002000F075
:100F2000CDFA0C2313A21821002000F0C7FA0C23DD
:100F300014A23421002000F0C1FA00F0C9F900F039
:100F400025F841F61F4141F2873000F069FC10BDE1
:100F5000414443315F4348325F56414C3A00000000
:100F6000414443315F4348325F566F4C3A302E3034
:100F70003030560054454D503A2B3030302E303002
:100F8000630000006E6F74653A00000008B501212F
:100F9000442000F00FFB48208DF803001820ADF826
:100FA000000069460548FFF709FF0120ADF8000081
:100FB00069460348FFF702FF08BD00000018014022
:100FC0000008014010B5044614B101201A49087008
:100FD00019480078F8B11948006830B11748001F67
:100FE000006810B116480068A8B90A2001F080FB1B
:100FF0000020114908701148006808B9012010BD8F
:101000000E48001F006808B90220F8E70C48006885
:1010100080B90320F3E70948006801280AD107488E
:10102000001F0068012805D105480068012801D18A
:10103000014908700020E2E7BE00002010012342B1
:101040000001214208B50121082000F0B3FA102068
:101050008DF803004FF4C040ADF8000003208DF878
:10106000020069460448FFF7A9FE00200349086012
:101070000349C1F8B80108BD000C0140B481214208
:101080000080214200BFFEE77047000070B50021DC
:1010900000230F22C47804B3154C246804F4E064E0
:1010A000C4F5E064210AC1F10403CA40447804FA9B
:1010B00003F184781440214309010E4C0678A155B0
:1010C000047804F01F050124AC4005786D11AD00D3
:1010D00005F1E025C5F8004109E0047804F01F059A
:1010E0000124AC40044D0678761145F8264070BDC9
:1010F0000CED00E000E400E080E100E00249014383
:10110000024A1160704700000000FA050CED00E093
:1011100030B500240CE0002506E00020074901EB73
:10112000C5010855681CC5B2802DF6DB601CC4B231
:10113000082CF0DB00F0CCF830BD00008C01002062
:10114000F0B5144600267F2801DC3F2900DDF0BD04
:101150000B46CF1701EB5777FF10C7F10707FAB21D
:10116000CF1701EB5777FF10A1EBC707FDB2C5F111
:1011700007070123BB40DEB24CB10A4B03EBC003AF
:101180009B5C3343074F07EBC007BB5408E0054B9C
:1011900003EBC0039B5CB343024F07EBC007BB5498
:1011A00000BFD4E78C01002008B50121202000F009
:1011B00001FAF820ADF8000003208DF8020010209D
:1011C0008DF8030069463F48FFF7F8FDF8213D48D8
:1011D000FFF77FFE01203C4908603C49C1F89801B7
:1011E0000020394908390860642001F081FA0120A3
:1011F0003649C1F894010021AE2000F08FF900219A
:10120000D52000F08BF90021502000F087F9002153
:10121000A82000F083F900213F2000F07FF9002191
:10122000D32000F07BF90021084600F077F9002177
:10123000402000F073F900218D2000F06FF90021AB
:10124000142000F06BF90021202000F067F9002144
:10125000022000F063F90021A12000F05FF90021D5
:10126000C02000F05BF90021DA2000F057F90021DE
:10127000122000F053F90021812000F04FF90021E5
:10128000EF2000F04BF90021D92000F047F90021B0
:10129000F12000F043F90021DB2000F03FF90021AC
:1012A000302000F03BF90021A42000F037F90021A4
:1012B000A62000F033F90021AF2000F02FF9FFF74E
:1012C00027FF08BD001401409C8122420080224279
:1012D00030B500241CE004F1B001C8B2002100F0D8
:1012E0001DF90021084600F019F90021102000F036
:1012F00015F9002508E0084901EBC501085D012149
:1013000000F00CF9681CC5B2802DF4DB601CC4B27F
:10131000082CE0DB30BD00008C0100202DE9F84FE7
:1013200080460F4616461C46BA462046E31704EB95
:101330005373DB1021464FEAE47C04EB5C7C4FEAFC
:10134000EC0CA4EBCC0CBCF1000F02D04FF0010C64
:1013500001E04FF0000C6344224604EBD27C4FEADC
:101360006C0C03FB0CF303F0FF0BA6F12000C6B2DC
:1013700000254EE00C2C07D106EB4600274901EB77
:101380008000405D009013E0102C05D1244800EB54
:101390000610405D00900BE0182C07D106EBC6004C
:1013A000204901EB8000405D009001E0BDE8F88F2E
:1013B0004FF0000927E0009800F0800028B139467E
:1013C00040460A9AFFF7BCFE09E00A9808B90120D6
:1013D00000E00020024639464046FFF7B1FE009883
:1013E0004006000E0090781CC7B2A7EB0A00A0428E
:1013F00005D1574608F1010000F0FF0806E009F1A9
:10140000010000F0FF09B9F1080FD4DB00BF681C30
:10141000C5B25D45AEDB00BFC8E70000F82C000890
:101420006C3100085C3700082DE9FF4F81B007469A
:1014300091461E460E9D4FF0000A002439E0301BF5
:10144000401EC1B20A2001F0FBFBB9FBF0F00A21FB
:10145000B0FBF1F201FB1208BAF1000F16D1701EB9
:10146000A04213DDB8F1000F0ED10120AB4605EB11
:10147000DB71491001FB04710090C8B22B46202299
:101480000299FFF74BFF12E04FF0010A0120AB4633
:1014900005EBDB71491001FB04710090C8B208F143
:1014A0003001CAB22B460299FFF738FF00BF601C1B
:1014B000C4B2B442C3DB05B0BDE8F08FF8B5064650
:1014C0000F4615461C4621E004EBD4714910C1F1CA
:1014D0008001B14202DA00263819C7B2C4F14000D7
:1014E000B84204DA002006460746FFF711FE012045
:1014F00000902A78234639463046FFF70FFF2046F2
:1015000004EBD07106EB6101CEB26D1C28787E2809
:1015100002DC28782028D7DAF8BD000010B5144B7B
:1015200019600023134CC4F89C31002216E00023FC
:101530000F4C0C3C236000F080031BB10123241DE1
:10154000236003E000230A4C083C23600123084C7D
:101550000C3C23604306180E531CDAB2082AE6DB63
:101560000123034C241D2360024CC4F8983110BDA4
:1015700098812242008022427047000001460020EC
:10158000034A506820F44040084350607047000010
:101590000010024029B1064AD2690243044BDA61C5
:1015A00004E0034AD2698243014BDA6170470000CC
:1015B0000010024029B1064A92690243044B9A6125
:1015C00004E0034A92698243014B9A61704700002C
:1015D0000010024030B500210022002400232D4DD0
:1015E0006D6805F00C0121B1042905D0082923D12B
:1015F00005E0294D056022E0274D05601FE0254DDF
:101600006D6805F47012234D6D6805F48034022571
:1016100005EB92421CB9214D554305600BE01D4D71
:101620006D6805F400351DB11C4D5543056002E0A1
:10163000194D5543056002E0174D056000BF00BF1E
:10164000144D6D6805F0F0010909154D6B5C0568D6
:10165000DD4045600F4D6D6805F4E061090A104DED
:101660006B5C4568DD4085600A4D6D6805F460512E
:10167000C90A0B4D6B5C4568DD40C560054D6D6862
:1016800005F44041890B074D6B5CC568B5FBF3F56C
:10169000056130BD0010024000127A0000093D00D3
:1016A0009F000020AF000020704710B500F002F846
:1016B00010BD00000CB50020019000903348006878
:1016C00040F480303149086000BF3048006800F4C1
:1016D000003000900198401C0190009818B90198C2
:1016E000B0F5A06FF1D12948006800F4003010B1C6
:1016F0000120009001E0002000900098012843D1D3
:101700002348006840F0100021490860084600683E
:1017100020F0030008600846006840F002000860FE
:101720001A484068194948600846406848600846B9
:10173000406840F4806048600846406820F47C10AF
:1017400048600846406840F4E81048600846006871
:1017500040F08070086000BF0C48006800F0007026
:101760000028F9D00948406820F003000749486084
:101770000846406840F00200486000BF03484068E7
:1017800000F00C000828F9D10CBD00000010024048
:1017900000200240042808D14FF0E021096941F0FF
:1017A00004014FF0E022116107E04FF0E0210969E8
:1017B00021F004014FF0E0221161704770470000F2
:1017C00010B51348006840F0010011490860084650
:1017D0004068104908400E494860084600680E49B4
:1017E00008400B4908600846006820F48020086023
:1017F0000846406820F4FE0048604FF41F008860EF
:10180000FFF753FF4FF000600449086010BD00006F
:10181000001002400000FFF8FFFFF6FE08ED00E0B8
:101820007FB505460C4601210846FFF7B3FE0020B0
:10183000ADF80A00ADF80600ADF80850ADF8044068
:1018400001A94FF0804000F029F9012211469007CC
:1018500000F01AF91D208DF8000003208DF801001A
:101860008DF8020001208DF803006846FFF70EFC9A
:101870000121880700F0E2F87FBD000010B50121CA
:10188000484800F0F0F801287ED10121454800F0D9
:10189000D2F8454800683C280BD300204249086034
:1018A00042490870424908604249C1F8BC014249B6
:1018B0000870424800683C280CD300203F4908606B
:1018C0003F4908703A49091D08603A49C1F8BC010E
:1018D0003C4908703C48006806280CD900203A4969
:1018E00008603A490870324908603249C1F8B801C5
:1018F0002F49083108602D48007850B933480078E6
:1019000038B92F48007820B90021264800F096F811
:1019100010BD2648007888B123480068401C224941
:1019200008602348006808B9012000E00020204931
:10193000086001201F49C1F8BC0100BF20480078A1
:1019400098B11E480068401C1C4908601848001DDA
:10195000006808B9012000E000201549091D086051
:1019600001201449C1F8BC0100BF1848007858B1E3
:1019700015480068401C1449086001200C490860A3
:101980000C49C1F8B80100E009E0094808300068D6
:1019900008B9012000E0002005490831086000BFB7
:1019A000B6E7000000040040900000208C000020FA
:1019B000B4812142008021429C000020940000203C
:1019C0008D0000209D000020980000208E00002047
:1019D0007FB505460C4601210220FFF7DBFD002004
:1019E000ADF80A00ADF80600ADF80850ADF80440B7
:1019F00001A90E4800F052F8012211460B4800F0F0
:101A000043F81D208DF8000002208DF8010003200E
:101A10008DF8020001208DF803006846FFF736FBC1
:101A20000121024800F00AF87FBD000000040040D8
:101A3000CA4302827047CA430282704721B10288BA
:101A400042F00102028004E002884FF6FE731A4061
:101A50000280704702460020138A0B400BB1012020
:101A600000E00020704730B502460020002300242B
:101A7000158A05EA0103958905EA010413B10CB141
:101A8000012000E0002030BD1AB183890B4383811F
:101A900002E083898B438381704700000022028823
:101AA0001D4B98420ED01D4B98420BD0B0F1804F89
:101AB00008D01B4B984205D01A4B984202D01A4BC3
:101AC000984204D14FF68F731A404B881A43174B34
:101AD000984207D0164B984204D04FF6FF431A4065
:101AE000CB881A4302808B8883850B8803850A4B39
:101AF00098420BD0094B984208D00E4B984205D023
:101B00000D4B984202D00D4B984201D10B7A0386BF
:101B10000123838270470000002C01400034014003
:101B20000004004000080040000C0040001000408D
:101B300000140040004001400044014000480140C2
:101B400010B540F225511D4800F087F810B31B482E
:101B500000F03EF9C4B21A48008800F40040C8B949
:101B60001748008800F4804060B10A2C03D00020A0
:101B70001349088020E01248008840F400401049D2
:101B8000088019E00D2C06D10D48008840F48040F3
:101B90000B49088010E00A480088C0F30D0009498D
:101BA0000C5407480088401C0549088008460088F6
:101BB000C72801DD0020088010BD0000003801406A
:101BC000BC000020C400002010B540F2255111488F
:101BD00000F043F8E0B10F4800F0FAF80E49087041
:101BE000084600780D490E4A127888540A48007851
:101BF000401C09490870094809490978405C4B288C
:101C000002D10020064908702021024800F00AF89D
:101C100010BD000000480040C00000208C050020DE
:101C2000BF00002010B50022002340F66A14A14234
:101C300000D100BF0A1201249440A3B2DC43048007
:101C400010BD21B1828942F40052828104E0828970
:101C50004DF6FF731A408281704770B5024600242A
:101C600000230025002040F66A16B14200D100BFD3
:101C7000C1F3421501F01F03012606FA03F3012DFB
:101C800002D19689334006E0022D02D1168A3340F4
:101C900001E0968A33400C12012606FA04F41688F5
:101CA000344013B10CB1012000E0002070BDF0B54C
:101CB0000346002400260025002040F66A17B9429A
:101CC00000D100BF1846C1F3421401F01F060127DE
:101CD00007FA06F5012C01D10C3004E0022C01D1E9
:101CE000103000E014301AB107682F43076002E09B
:101CF0000768AF430760F0BD2DE9F04786B00546A1
:101D00000E460024A24600BFA1460027B08900B1BC
:101D100000BF2F462C8A4CF6FF700440F088044325
:101D20002C82AC894EF6F3100440B0883189084308
:101D3000718908430443AC81AC8A4FF6FF400440EC
:101D4000B0890443AC8201A8FFF744FC1F488742D6
:101D500002D1DDF810A001E0DDF80CA0A88900F4A4
:101D6000004040B10AEBCA0000EB0A10316849009C
:101D7000B0FBF1F807E00AEBCA0000EB0A1031688B
:101D80008900B0FBF1F86420B8FBF0F004012009F1
:101D9000642101FB1089A88900F4004040B1322081
:101DA00000EBC900B0FBF1F000F00700044308E0CD
:101DB000322000EB09106421B0FBF1F000F00F00BD
:101DC00004432C8106B0BDE8F087000000380140D4
:101DD00001468888C0F30800704700BFFEE7000096
:101DE0000FB4054B10B503A9044A029800F0DAF8C5
:101DF00010BC5DF814FB000089270008B800002023
:101E000002E008C8121F08C1002AFAD170477047C3
:101E1000002001E001C1121F002AFBD17047000021
:101E20002DE9FF5F82B00021DDE90430020DDDF80D
:101E300040B0034318D044F61050A2F2FF324243A0
:101E40001514119801281FD0A5EB0B00401C5FEA68
:101E5000000A4FF000064E4FDFF83891B04650466A
:101E600015D5CAF1000413E0119801244AA30128F2
:101E700001D16FEA0B010298119AC0E90031C0E963
:101E8000024206B0BDE8F09FCBF10000DFE7044658
:101E90000021404A491842EB0450CDE9001012E0FD
:101EA000E00707D032463B4640464946FEF76EF90A
:101EB0008046894632463B4610461946FEF766F98B
:101EC00006460F466410002CEAD1DDE90401DDE985
:101ED0000023BAF1000F06DAFEF758F942464B46E6
:101EE000FEF754F905E0FEF7D7FB42464B46FEF7F6
:101EF000D3FB04460E460022284BFEF7F3F903D825
:101F00004FF0FF30014607E00022254B20463146C6
:101F1000FEF71BFBFEF72FFC102409E0002C0ADB68
:101F20000A220023FEF73CFA039B30321A55641E46
:101F300050EA0102F2D1641C039AC4F11103144463
:101F4000119A012A03D0012208430DD10AE0084367
:101F500004D000204FF0110B119072E7A3EB0B059A
:101F60006D1E0DE05B4504DD4FF0000205F101053B
:101F700004E003DA4FF00002A5F10105002AECD0DD
:101F800002981199C0E90231C0E9004579E70000E3
:101F9000000014400000F03F300000000000F0435B
:101FA0000000E03F2DE9FF4F95B09A46884606466F
:101FB0000025EEE1252877D100242746F94A0121A2
:101FC000039400E0044316F8013F203B01FA03F0BC
:101FD0001042F7D130782A2811D06FF02F033078D3
:101FE000A0F13002092A16D8039A44F0020402EB49
:101FF000820203EB42021044761C0390EFE758F88C
:10200000042B0392002A03DA504244F40054039054
:1020100044F00204761C30782E2816D116F8010FF1
:1020200044F004042A280DD06FF02F023078A0F17C
:102030003003092B09D807EB870302EB4303C718CA
:10204000761CF3E758F8047B761C30786C280FD0A8
:1020500006DC4C2817D068280DD06A2814D104E07B
:10206000742810D07A280FD10DE044F400140AE04F
:1020700044F4801401E044F440147278824202D1A6
:1020800004F58014761C761C307866280BD013DC9F
:10209000582877D009DC002875D04528F6D0462886
:1020A000F4D047281AD193E118E0632835D064288A
:1020B00079D0652812D18BE1702873D008DC6728AD
:1020C000F1D069286FD06E280DD06F2806D1ACE012
:1020D00073282CD0752874D0782853D0524617997D
:1020E00090476D1C54E1C4F30250022809D0032824
:1020F0000DD0D8F8001004280DD00D6008F10408A8
:1021000046E1D8F80010EA17C1E90052F6E7D8F81E
:1021100000100D80F2E70D70F0E718F8041B8DF841
:10212000001000208DF80100EB46012003E058F874
:1021300004BB4FF0FF3061074FF0000102D40DE007
:1021400009F101018946B9420FDA8145F8DB1BF834
:1021500009100029F4D108E009F101018946814202
:10216000FADB1BF809100029F6D103985346A0EBBF
:10217000090721463846179A00F080FA284400EBF8
:10218000090507E044E008E10DE01BF8010B5246A9
:1021900017999047B9F10109F7D2534621463846BD
:1021A000179AF2E039E00A21C4F302524FF0000B13
:1021B0000091022A06D058F8040BC117032A09D04F
:1021C0000AE023E008F1070020F00702F2E802012C
:1021D000904605E000B2C117042A01D140B2C117F0
:1021E000002906DA0A460021404261EB02012D2255
:1021F00002E0220504D52B228DF80420012203E001
:10220000E20701D02022F7E7914657E00A2100E0DB
:1022100010214FF0000B00910BE010214FF0000B4C
:1022200044F004040827009103E008204FF0000B5D
:102230000090C4F30252022A05D058F8040B002182
:10224000032A08D008E008F1070020F00702F2E8AE
:102250000201904603E080B2042A00D1C0B24FF0E0
:10226000000922072AD53278702A07D0DDF800C08D
:102270008CF0100C5CEA0B0C05D00EE040228DF8BF
:102280000420012208E050EA010306D030238DF833
:1022900004308DF8052002229146009B83F008034C
:1022A00053EA0B030AD150EA010201D1620705D5B6
:1022B00030228DF804204FF001097F1E3278582A11
:1022C00004D039A20C920CAA02920BE03BA2F9E7CF
:1022D0005B46009AFEF764F80C9B9B5C029A521EC8
:1022E0000292137050EA0102F2D1029804A9081A6E
:1022F00000F1200B600702D524F4803400E00127B0
:102300005F4502DDA7EB0B0000E0002000EB0B01B6
:10231000009003984944401A0390E00306D45346C2
:102320002146179A039800F0A9F90544002706E012
:1023300001A85246C05D179990476D1C7F1C4F4500
:10234000F6DBE0030CD553462146179A039800F0BC
:1023500095F9054404E030205246179990476D1CCA
:102360000099481E00900029F5DC08E002980299C7
:1023700052460078491C0291179990476D1CBBF199
:102380000001ABF1010BF1DC5BE100F065F9054404
:10239000761C307800287FF40DAE19B02846BDE8D1
:1023A000F08F0000092801003031323334353637E0
:1023B0003839616263646566000000003031323391
:1023C0003435363738394142434445460000000031
:1023D000600700D4062708F1070020F00700F0E8A6
:1023E0000223804603F0004C5FEA0C0001D097A066
:1023F00009E0200501D596A005E0E00701D095A0F1
:1024000001E0AFF24C001390307823F000436528D0
:102410000CD006DC452809D046281DD047287FD19E
:102420003BE0662818D067287AD136E00021112FCA
:1024300001DB112000E0781CCDE9000104A90CA803
:10244000FFF7EEFCDDE90D010C9A4FF0000B07F1F0
:102450000109109200914EE04FF000400097CDE945
:10246000011004A90CA8FFF7DBFCDDE90D020C9BB1
:102470000F994FF0000B91461093009211B9791CFF
:1024800000EB0109B7EB090003D4C0F1FF3B07F1F2
:102490000109A9EB0700019042E0012F00DA0127B2
:1024A0000021112F01DD112000E03846CDE90001A7
:1024B00004A90CA8FFF7B4FCDDE90D010C9A00910A
:1024C0004FF0000BB946109221070FD4009A4A45ED
:1024D00003DA914601E0A9F10109B9F1010F05DD27
:1024E000109AA9F10101515C3029F4D0B84202DA06
:1024F00010F1040F03DA0121CDE9011010E00028EA
:1025000003DC8344A9EB000102E0411C494500DDE6
:102510008946A0EB0B00401C01904FF00040029058
:10252000200705D40198484502DB4FF0FF300190A9
:1025300000208DF84B0002980DF14B07B0F1004FD1
:1025400025D002200C902B200D90029800280CDA48
:10255000404202902D200D9007E00A210298FDF7DD
:1025600009FF3031029007F8011D0C99481E0C90AC
:102570000029F2DC02980028EFD1791E0D9808702E
:10258000307800F0200040F0450007F8020D11A857
:10259000C01BC01D02901398007800B1012000EB11
:1025A0000901019801EBE071029801440398401A77
:1025B000401E0390E00306D453462146179A039821
:1025C00000F05CF805441398007818B1524617994A
:1025D00090476D1CE00323D553462146179A039874
:1025E00000F04CF805441BE0BBF1000F07DB00983E
:1025F000584504DD1098179910F80B0001E0179961
:1026000030205246904701980BF1010B401E05F116
:102610000105019004D12E205246179990476D1C58
:10262000B9F10001A9F10109DEDC05E017F8010BA1
:102630005246179990476D1C0299481E0290002936
:10264000F4DC53462146179A03989EE62D000000BD
:102650002B000000200000002DE9F0410446002579
:102660001E461746880404D405E039462020B047AA
:102670006D1C641EF9D52846BDE8F0812DE9F041B6
:10268000044600251E469046C80301D5302700E0C9
:102690002027880404D505E041463846B0476D1C24
:1026A000641EF9D52846BDE8F081000010B56FF032
:1026B0000400FFF76FF80A4800680A49B0FBF1F020
:1026C000094908700846007800EB4001C1EBC010D2
:1026D0004FF6FF7101EAC0000449088010BD0000F8
:1026E0000000002000127A00B4000020B600002094
:1026F0000146114A12884A434FF0E0235A610022F2
:102700009A611A46126942F001021A6100BF4FF045
:10271000E022106900F001021AB100F48032002AB0
:10272000F5D04FF0E022126922F001024FF0E023D1
:102730001A6100229A617047B60000200146114AD2
:1027400012784A434FF0E0235A6100229A611A46F8
:10275000126942F001021A6100BF4FF0E0221069D5
:1027600000F001021AB100F48032002AF5D04FF0D7
:10277000E022126922F001024FF0E0231A610022E8
:102780009A617047B400002000BF054A128802F029
:102790004002002AF9D0C2B2014B1B1D1A807047BB
:1027A0000038014010B50723012204210848FEF734
:1027B00083F801210648FEF7E0F800BF0221044833
:1027C000FEF73EF80028F9D00148FEF735F810BDB5
:1027D0000024014070B5FFF769FF0024002500BF09
:1027E00008E0FFF7DFFF204484B20520FFF780FFF9
:1027F000681CC5B20A2DF4DB0A2094FBF0F080B20D
:1028000070BD000008B501210420FEF7D3FE0420AE
:102810008DF803002020ADF8000003208DF80200A1
:1028200069460248FEF7CAFA08BD000000080140E8
:1028300008B5FEF753FB4FF0000AD3465EE10121D5
:102840008807FFF707F9012808D101218007FFF762
:10285000EFF8AB480078401CA9490870A8480078F8
:1028600001287DD10020A6490870FFF7B3FFA549D4
:1028700008800C20042300900846028800214E2086
:10288000FEF7D2FD9F480088FDF7FBFC0090FDF7A6
:1028900016FD80464FF066329B4BFDF777FC0646EF
:1028A00000229A4BFDF772FC0446FDF733FD984970
:1028B000086008460068FDF7E9FC82460C20012309
:1028C0005246014600904E20FEF7AEFD91499048D9
:1028D0000068FDF729FC0446FDF7D8FC8246642019
:1028E0009AFBF0F00A2190FBF1F201FB12040C209C
:1028F00001232246014600905A20FEF795FD6420F0
:102900009AFBF0F100FB11A00A2190FBF1F40C20DE
:10291000012322460D2100906020FEF785FD0A204C
:102920009AFBF0F100FB11A40C20012322460D219B
:1029300000906620FEF778FDFEF780F87649086083
:10294000002175480068FDF701FD10D2724800684B
:1029500080F000407049086001200C232D2200E027
:1029600042E0182100901E20FEF7D8FC07E001206D
:102970000C232B22182100901E20FEF7CFFC664866
:102980000068FDF783FC82460C2003235246182181
:1029900000902420FEF748FD60495F480068FDF77D
:1029A000C3FB0446FDF772FC824664209AFBF0F1FB
:1029B00000FB11A00A2190FBF1F40C200123224618
:1029C000182100903C20FEF72FFD0A209AFBF0F121
:1029D00000FB11A40C200123224618210090422064
:1029E000FEF722FDFEF774FC0020FEF7EBFA8346AB
:1029F000BBF1010F0CD1002049490870494908601A
:102A000049490870494908604949C1F8B4011FE0C3
:102A1000BBF1020F0CD100204649087046490860FE
:102A200046490870414908604149C1F8B8010FE0C2
:102A3000BBF1030F0CD100204149087041490860E7
:102A40003A49083908603A49C1F8B801374908607D
:102A50003D4931480068FDF783FC0BD230480078CF
:102A600040B901202E49087041F61F4141F28730DC
:102A7000FEF7AEFF26480068FDF721FC0446334A06
:102A8000334BFDF72FFC0BD22A48007840B90120C8
:102A90002849087041F61F4141F28730FEF798FF40
:102AA0002C48006801280BD12548007840B9012046
:102AB0002349087041F61F4141F28730FEF788FF35
:102AC0002448016824A0FFF78BF91D48017826A04F
:102AD000FFF786F91B48016827A0FFF781F909482D
:102AE00001882AA0FFF77CF909480068FDF7E7FB99
:102AF000044622460B4629A0FFF772F99FE6000024
:102B00009E0000208000002066664A3F0000F83FDB
:102B10008400002000007A44880000200000C842A1
:102B20008C000020900000209C000020BC812142ED
:102B3000008021428D000020940000209D00002094
:102B40008E0000209800002000002842CDCCCCCC84
:102B5000CCCCF43F1401214248435F53525F494EAD
:102B6000203D2025640A0000666C61675F68722062
:102B70003D2025640A000000666C61675F33735F67
:102B80006872203D2025640A000000006164635FD4
:102B90006D713278203D2025640A00006D71325F2E
:102BA000766F6C203D2025660A00000000B587B0D6
:102BB00001210420FEF7FEFC1020ADF818000020D3
:102BC0008DF81B0003208DF81A0006A91A48FEF79D
:102BD000F5F801214802FEF7EDFC4FF40040FEF746
:102BE000CDFC00208DF8090004904FF46020039084
:102BF0000020019001208DF8140000208DF80800BD
:102C000001A90E48FDF730FE01210C48FDF7FFFD3C
:102C10000A48FDF7ADFE0948FDF7BAFE00BF0748B8
:102C2000FDF717FE0028FAD100BF0448FDF7FAFDB2
:102C30000028FAD107B000BD00080140002401407F
:102C400010B50246012000E050430B1EA1F1010423
:102C5000E1B2F9D110BD000010B586B004460121E3
:102C600044F20400FEF7A6FC4FF40070ADF8140027
:102C700003208DF8160018208DF8170005A91C48B0
:102C8000FEF79CF84FF48060ADF8140004208DF836
:102C9000170005A91648FEF791F825208DF80000C9
:102CA00003208DF801008DF8020001208DF803004B
:102CB0006846FEF7EBF901940020ADF80800ADF886
:102CC0000A00ADF80C00ADF810000C20ADF80E00B5
:102CD00001A90848FFF710F8012240F225510548E4
:102CE000FEF7E5FF01210348FEF7ABFF06B010BD7C
:102CF0000008014000380140000000000000000012
:102D000000000000000000003F4000000000000044
:102D100000003000400030004000000009000BC0FF
:102D20003D000BC03D00090018C024407FE0224058
:102D300031800000180024C01B000D80324001804B
:102D400003801C4027401C800740004010006000AA
:102D500000000000000000000000000000001F80D4
:102D6000204040200000402020401F800000000044
:102D7000090006001F80060009000000040004008E
:102D80003F8004000400000000100060000000000C
:102D9000000000000400040004000400040000001F
:102DA000000000400000000000000000002001C002
:102DB00006003800400000001F80204020402040D6
:102DC0001F800000000010403FC0004000000000D5
:102DD00018C02140224024401840000010802040AC
:102DE000244024401B80000002000D0011003FC061
:102DF000014000003C802440244024402380000007
:102E00001F80244024403440038000003000200014
:102E100027C03800200000001B80244024402440AC
:102E20001B8000001C0022C0224022401F800000A6
:102E3000000000000840000000000000000000004A
:102E40000460000000000000000004000A001100FF
:102E50002080404009000900090009000900000025
:102E600000004040208011000A00040018002000EB
:102E700023402400180000001F80204027402940E4
:102E80001F400000004007C039000F0001C0004093
:102E900020403FC0244024401B8000001F80204071
:102EA000204020403080000020403FC02040204093
:102EB0001F80000020403FC024402E4030C0000052
:102EC00020403FC024402E00300000000F00108042
:102ED000204022403380020020403FC00400040014
:102EE0003FC02040204020403FC020402040000004
:102EF0000060202020203FC02000200020403FC054
:102F000024400B0030C0204020403FC02040004003
:102F1000004000C03FC03C0003C03C003FC0000078
:102F200020403FC00C4023003FC020001F802040B5
:102F3000204020401F80000020403FC0244024004B
:102F4000180000001F802140214020E01FA0000049
:102F500020403FC02440260019C0004018C0244033
:102F60002440224031800000300020403FC02040FB
:102F70003000000020003F80004000403F802000E3
:102F800020003E0001C0070038002000380007C0C4
:102F90003C0007C038000000204039C0060039C09E
:102FA000204000002000384007C0384020000000CA
:102FB000304021C02640384020C000000000000002
:102FC0007FE0402040200000000070000C000380E3
:102FD000004000000000402040207FE00000000092
:102FE0000000200040002000000000000010001041
:102FF0000010001000100010000000004000000051
:1030000000000000000002800540054003C00040B1
:1030100020003FC004400440038000000000038003
:1030200004400440064000000000038004402440A7
:103030003FC0004000000380054005400340000001
:10304000000004401FC0244024402000000002E093
:10305000055005500650042020403FC004400400A5
:1030600003C000400000044027C0004000000000F2
:1030700000100010041027E00000000020403FC0B6
:103080000140070004C00440204020403FC00040F1
:103090000040000007C0040007C0040003C0000097
:1030A000044007C00440040003C000400000038047
:1030B0000440044003800000041007F00450044062
:1030C00003800000000003800440045007F000105B
:1030D000044007C002400400040000000000064055
:1030E0000540054004C00000000004001F800440AB
:1030F00000400000040007800040044007C000407A
:103100000400070004C0018006000400060001C09E
:10311000070001C006000000044006C0010006C010
:10312000044000000410071004E0018006000400C1
:103130000000044005C006400440000000000000FC
:1031400004007BE040200000000000000000FFF0D1
:1031500000000000000040207BE0040000000000B0
:1031600040008000400020002000400000000000DF
:10317000000000000000000000000000000000004F
:1031800000001FCC000C0000000000000000080040
:10319000300060000800300060000000022003FCE6
:1031A0001E20022003FC1E200220000000000E183A
:1031B00011043FFF10840C78000000000F00108401
:1031C0000F3800C0077818840078000000780F845A
:1031D00010C411240E9800E4008400080800680060
:1031E000700000000000000000000000000000006F
:1031F000000007E018182004400200000000400210
:103200002004181807E000000000000002400240FF
:1032100001800FF001800240024000000080008029
:1032200000800FF800800080008000000001000D89
:10323000000E000000000000000000000000008000
:103240000080008000800080008000800000000C72
:10325000000C00000000000000000000000000065C
:10326000001800600180060018002000000007F030
:10327000080810041004080807F000000000080403
:1032800008041FFC000400040000000000000E0CF5
:1032900010141024104411840E0C000000000C18AF
:1032A00010041104110412880C700000000000E0EA
:1032B0000320042408241FFC0024000000001F98A1
:1032C000108411041104108810700000000007F031
:1032D00008881104110418880070000000001C0008
:1032E000100010FC13001C001000000000000E383D
:1032F00011441084108411440E38000000000700AF
:10330000088C10441044088807F0000000000000FA
:103310000000030C030C000000000000000000008F
:103320000001010600000000000000000000008015
:1033300001400220041008081004000002200220AE
:1033400002200220022002200220000000001004BF
:1033500008080410022001400080000000000E0058
:103360001200100C106C10800F00000003E00C180D
:1033700013E4142417C4082807D000000004003CFC
:1033800003C41C40074000E4001C000410041FFCA0
:103390001104110411040E880070000003E00C18E1
:1033A00010041004100410081C10000010041FFC6E
:1033B000100410041004080807F0000010041FFC9B
:1033C0001104110417C410040818000010041FFC95
:1033D0001104110017C010000800000003E00C18D1
:1033E0001004100410441C780040000010041FFC5E
:1033F00010840080008010841FFC10040000100462
:1034000010041FFC10041004000000000003000161
:10341000100110011FFE10001000000010041FFC1E
:10342000110403801464181C1004000010041FFC15
:103430001004000400040004000C000010041FFC31
:103440001F0000FC1F001FFC1004000010041FFCE4
:103450000C04030000E010181FFC100007F008081F
:10346000100410041004080807F0000010041FFCEA
:1034700010841080108010800F00000007F00818E2
:1034800010241024101C080A07F2000010041FFC6E
:103490001104110011C011300E0C000400000E1CAC
:1034A00011041084108410441C380000180010000F
:1034B00010041FFC100410001800000010001FF87A
:1034C00010040004000410041FF8100010001E0077
:1034D00011E0001C007013801C0010001FC0103C85
:1034E00000E01F0000E0103C1FC000001004180C9A
:1034F000163401C001C01634180C100410001C0052
:10350000130400FC13041C00100000000804101C2D
:103510001064108413041C04101800000000000044
:1035200000007FFE40024002400200000000300028
:103530000C0003800060001C00030000000040023B
:10354000400240027FFE000000000000000000007A
:103550002000400040004000200000000001000169
:103560000001000100010001000100010000400015
:103570004000200000000000000000000000009853
:10358000012401440144014400FC000410001FFC1C
:103590000088010401040088007000000000007031
:1035A000008801040104010400880000000000708C
:1035B00000880104010411081FFC0004000000F849
:1035C000014401440144014400C80000000001041A
:1035D00001040FFC1104110411001800000000D6B2
:1035E00001290129012901C90106000010041FFC5D
:1035F000008401000100010400FC0004000001043B
:10360000190419FC0004000400000000000000037D
:1036100000010101190119FE0000000010041FFC47
:103620000024004001B4010C01040000000010045B
:1036300010041FFC0004000400000000010401FC51
:103640000104010001FC0104010000FC010401FC73
:10365000008401000100010400FC0004000000F8E7
:10366000010401040104010400F80000010101FF4C
:103670000085010401040088007000000000007053
:10368000008801040104010501FF00010104010497
:1036900001FC00840104010001800000000000CC56
:1036A00001240124012401240198000000000100EC
:1036B000010007F80104010400000000010001F806
:1036C000000400040004010801FC00040100018062
:1036D0000170000C001001600180010001F0010C7C
:1036E000003001C00030010C01F0010000000104B5
:1036F000018C00740170018C010400000101018142
:103700000171000E001801600180010000000184B9
:10371000010C013401440184010C00000000000090
:103720000000000001003EFC4002400200000000DA
:1037300000000000FFFF0000000000000000400249
:1037400040023EFC0100000000000000000060009C
:1037500080008000400040002000200000000000A9
:103760000000000000000000000000000000000059
:103770000000000000000000000000000000000049
:103780000000000000000000000000000000000F2A
:1037900080380FFE380F8038000000000000000065
:1037A0000000000000000000000001000006000012
:1037B0000C00003800003100000600000C0000384A
:1037C0000000300000000000000000006180006781
:1037D000F807F980006180006180006180006180ED
:1037E0000067F807F9800061800000000000000019
:1037F000000001C0E003E0F00630080418081FFFD5
:10380000FE040E080787F00381E0000000000000BE
:1038100001F000060C00040408060C7001F9C00059
:103820000E00003BE000EC18070808040C18000329
:10383000E00000000001E00007F003F818041C0895
:1038400004170807E1D003C0E00023B0003C0800E3
:1038500020080000100000000000000100003100FE
:10386000003200001C00000000000000000000000A
:103870000000000000000000000000000000000048
:103880000000000000000000000000007F0001FFB9
:10389000C00780F00C001810000420000200000097
:1038A0000000002000021000040C00180780F00146
:1038B000FFC0007F000000000000000000000000CA
:1038C00000000000000000004200006600006600EA
:1038D000003C0000180003FFC0001800003C00007E
:1038E00066000066000042000000000008000008BA
:1038F0000000080000080000080001FFC0000800E8
:103900000008000008000008000008000000000097
:10391000000100003100003200001C000000000027
:103920000000000000000000000000000000000097
:103930000000000008000008000008000008000067
:103940000800000800000800000800000800000847
:1039500000000000000000000000000038000038F7
:10396000000038000000000000000000000000001F
:103970000000000000000000000000000006000041
:103980001C000070000180000E0000380000C00024
:103990000700001C000030000000000000000000D4
:1039A0007F8001FFE0038070060018040008040017
:1039B0000806001803807001FFE0007F800000000F
:1039C00000000000000001000801000801000803D9
:1039D000FFF807FFF80000080000080000080000DA
:1039E0000000000000000001C03802C05804009828
:1039F000040118040218040418061C1803F818011E
:103A0000E0F800000000000000000001C0E003C07A
:103A1000F004000804080804080806180803F4184D
:103A200001E7F00001E000000000000000000000DD
:103A30000300000D00001100006100008108030177
:103A40000807FFF80FFFF800010800010800000058
:103A50000000000000E007FCD00608080610080679
:103A60001008061008061838060FF00607C00000F8
:103A700000000000000000003F8001FFE0038430F0
:103A8000020818041008041008041008071810038E
:103A90000FF00007C000000000000000000003C09D
:103AA000000700000600000600F80607F8061800E8
:103AB00006E0000700000600000000000000000112
:103AC000E1E003F7F0063410041808041808040CA9
:103AD00008040C0806161803F3F001C1E00000000A
:103AE00000000000F80003FC30030638040208045C
:103AF00002080402080404100308F001FFC0007F5C
:103B000000000000000000000000000000000000B5
:103B100000000000703800703800703800000000AD
:103B20000000000000000000000000000000000095
:103B30000000000000000000301A00301C000000EF
:103B40000000000000000000000000000000000075
:103B50000000000800001400002200004100008066
:103B6000800100400200200400100800080000004E
:103B700000000000210000210000210000210000C1
:103B8000210000210000210000210000210000216F
:103B90000000000000000000000008000804001001
:103BA000020020010040008080004100002200004F
:103BB000140000080000000000000003C00004C062
:103BC00000040000080038080F3808083808100002
:103BD0000C300007E00003C00000000000000000FF
:103BE0003F8000FFE0038070020F1006708804C061
:103BF00088048308047F8802C09003012000FE40EF
:103C00000000080000180001F8003E0801C200078B
:103C1000020007E20000FE00001FC80001F80000DB
:103C20003800000804000807FFF807FFF804080838
:103C300004080804080804080806180803F4180112
:103C4000E7F00001E0000000000000003F8001FFFD
:103C5000E003807002001804000804000804000853
:103C60000400100600200780C000000004000807C0
:103C7000FFF807FFF8040008040008040008040027
:103C80001802001003807001FFE0007F8000000038
:103C900004000807FFF807FFF804080804080804F0
:103CA0000808040808043E0804000806001801007B
:103CB0006000000004000807FFF807FFF804080888
:103CC000040800040800040800043E000600000682
:103CD0000000018000000000000000003F8001FFA4
:103CE000E0038070060018040008040208040208BB
:103CF0000203F00783F0000200000200040008073E
:103D0000FFF807FFF8040808000800000800000892
:103D10000000080004080807FFF807FFF80400087F
:103D20000000000000000400080400080400080768
:103D3000FFF807FFF804000804000804000800006A
:103D40000000000000000000000600000700000165
:103D500004000104000104000307FFFE07FFFC0448
:103D6000000004000004000004000807FFF807FF3B
:103D7000F8040C08001800003E0004C7800503C8C2
:103D80000600F804003804001800000804000807C2
:103D9000FFF807FFF8040008000008000008000012
:103DA0000800000800000800001800006000000083
:103DB00004000807FFF807800807FC00007FC00028
:103DC00003F80007C000780007800807FFF807FF26
:103DD000F804000804000807FFF807000803C00003
:103DE00000E000003800001E000007000001C004D1
:103DF00000F007FFF8040000000000007F8001FFD2
:103E0000E00380700600180400080400080600188B
:103E100003003001FFE0007F80000000040008077D
:103E2000FFF807FFF8040408040400040400040475
:103E300000040400060C0003F80001F0000000007C
:103E4000000000007F8001FFE0038070060088040E
:103E500000880400C806003C03003E01FFE6007F26
:103E60008400000004000807FFF807FFF8040808B2
:103E7000040800040C00040F00040BC00610F0033B
:103E8000F03801E00800000800000001E0F803F04D
:103E900030063010041808041808040C08040C0834
:103EA0000206180207F00781E0000000018000060A
:103EB000000004000004000004000807FFF807FFEA
:103EC000F80400080400000400000600000180005F
:103ED00004000007FFE007FFF004001800000800DE
:103EE000000800000800000800000804001007FF98
:103EF000E004000004000006000007E00007FE00E8
:103F0000041FE00001F80000380001E0043E000753
:103F1000C00006000004000004000007E00007FFE6
:103F2000C0041FF80007C007F80007FF80043FF82F
:103F30000007C004F80007000004000000000004AF
:103F4000000806001807C07805F1C8003E00001FF1
:103F5000800463E80780F8060018040008000000E9
:103F600004000006000007800007E008047C080049
:103F70001FF80007F800180804E008070000060012
:103F8000000400000000000100080600380400F8EA
:103F90000403E8040F08047C0805F00807C00807BC
:103FA0000018040060000000000000000000000095
:103FB000000000000000003FFFFE20000220000281
:103FC000200002200002200002000000000000008B
:103FD000000008000007000000C0000038000006D4
:103FE000000001C000003000000E000001000000D1
:103FF000000000000000200002200002200002203B
:1040000000022000023FFFFE000000000000000050
:104010000000000000000000000000000008000098
:1040200010000030000020000030000010000008E8
:10403000000000000000000000000100000100007E
:10404000010000010000010000010000010000016A
:10405000000001000001000001000001000000005C
:1040600000000000002000002000001000001000F0
:104070000000000000000000000000000000000040
:104080000000000000F00019F8001B1800220800D2
:104090002608002408002410003FF8001FF8000044
:1040A0000800001800000004000007FFF80FFFF0F0
:1040B0000018180010080020080020080030180020
:1040C0001FF0000FC00000000000000007C0001F2C
:1040D000F0001830002008002008002008003C08EC
:1040E000001C100000600000000000000000000044
:1040F00007C0001FF000381800200800200800202A
:104100000804101007FFF80FFFF000001000000077
:104110000000000000000007C0001FF00012300087
:104120002218002208002208003208001E10000E8B
:1041300020000000000000002000002008002008EF
:1041400001FFF803FFF806200804200804200807F0
:10415000200003000000000000000000000E000E20
:104160006E001FF30031B10020B10020B100319189
:10417000001F13002E1E00200E003000000000045F
:10418000000807FFF80FFFF80010080020000020CB
:1041900000002008003FF8001FF8000008000000A1
:1041A0000000000000000020080020080020080691
:1041B0003FF8063FF8000008000008000008000073
:1041C00000000000000000000000000003000003E9
:1041D000002001002001002003063FFE063FFC00F6
:1041E000000000000000000000000004000807FFBD
:1041F000F80FFFF8000188000300002FC00038F816
:104200000020380020080000080000000000000026
:10421000000004000804000804000807FFF80FFF6E
:10422000F80000080000080000080000000000007E
:10423000002008003FF8003FF800100800200000B0
:104240003FF8003FF8001008002000003FF8003F52
:10425000F8000008000000002008003FF8003FF8C8
:10426000001008001000002000002008003FF800A7
:104270001FF80000080000000000000007C0000F49
:10428000F000183000300800200800200800300836
:10429000001830000FF00007C00000000000000010
:1042A0002001003FFF003FFF001011002009002007
:1042B00008002008003038001FF0000FC000000088
:1042C0000000000007C0001FF000381800200800A0
:1042D0002008002009001011001FFF003FFF000010
:1042E00001000000002008002008002008003FF81E
:1042F000003FF80008080010080020080020000017
:104300003000003000000000000000000000000C41
:1043100078001E18003308002308002108002188B7
:104320000021980030F0003860000000000000001C
:10433000200000200000200000FFF003FFF8002014
:1043400008002008002008000030000000000000E5
:10435000000000002000003FF0007FF8000018007F
:104360000008000008002010003FF8007FF0000067
:1043700010000000000000002000003000003C00A1
:10438000003F800023F000007800007000238000D0
:104390003C00003000002000002000003C00003FF6
:1043A000E00023F80000E0002700003E00003FE0AE
:1043B0000021F80001E0003E0000200000000000A5
:1043C0002008002008003838003E680027800003DD
:1043D000C8002CF800383800201800200800000021
:1043E000000000002000003003003C01003F83007B
:1043F00023EC000070002380003C0000200000201F
:104400000000000000000000000000380800203814
:104410000020F80023E8002F88003E08003808003C
:1044200020180000700000000000000000000000E4
:10443000000000000000000008000014001FF7FC4E
:104440003000062000020000000000000000000014
:104450000000000000000000000000000000FFFF5E
:10446000FF0000000000000000000000000000004D
:104470000000000000002000023000061FF7FC00D2
:104480001400000800000000000000000000000010
:104490000000000000000018000060000040000064
:1044A000400000200000100000080000040000048C
:1044B00000000C0000100000D8440008000000209C
:1044C000C4000000001E00089C450008C400002035
:1044D0006C180000101E000800A24A040000000032
:1044E00000000000010203040607080939414438AE
:1044F000364532393632413538423636384236362C
:10450000353434414646303100394144383644353B
:1045100033354541363730444639364645384236DC
:104520003635343441464630310030303331303066
:104530003333303033313030333030303337303064
:104540003330303033343030333630303332303053
:10455000333730303331000000000000000000002D
:10456000000000000000000000000000000000004B
:104570000000000000000000000000010203040130
:1045800002030406070809020406080000000000F0
:0C4590000000000000000100000000001E
:04000005080000ED02
:00000001FF
